:100000000C945B000C94F2010C940F020C9483008E
:100010000C9483000C9483000C9483000C94830054
:100020000C9483000C9483000C9483000C94830044
:100030000C9483000C9483000C9483000C94830034
:100040000C942C020C9483000C947F030C9483007A
:100050000C9483000C9483000C9483000C94830014
:100060000C9483000C948300000024272A000025B0
:10007000282B000023262904040404040404040299
:100080000202020202030303030303010204081035
:100090002040800102040810200102040810200002
:1000A0000000070002010000030406000000000039
:1000B00000000000E70111241FBECFEFD4E0DEBF37
:1000C000CDBF11E0A0E0B1E0E0E4F9E002C00590AE
:1000D0000D92A635B107D9F711E0A6E5B1E001C050
:1000E0001D92AC3EB107E1F710E0C6EBD0E004C0D2
:1000F0002297FE010E946304C43BD107C9F70E9406
:10010000E0010C949E040C940000A0E0B0E0EBE849
:10011000F0E00C946F04EC01A880B980CA80DB8009
:10012000A114B104C104D10441F484E2A82E89EDE4
:10013000B82E8BE5C82E87E0D82EC601B5012DE17B
:1001400033EF41E050E00E94320427EA31E440E01E
:1001500050E00E94DE037B018C01C601B5012DE158
:1001600033EF41E050E00E943204CA01B9012CEEA5
:1001700034EF4FEF5FEF0E94DE036E0D7F1D801F97
:10018000911F97FF04C06150704080409048688381
:1001900079838A839B839B01AC015F77B901CA0194
:1001A000CDB7DEB7EAE00C948B040E948500089579
:1001B00080E091E00E9485000895609300017093B3
:1001C00001018093020190930301089561E0809101
:1001D00004010E940E0308956F927F928F929F9266
:1001E000AF92BF92CF92DF92EF92FF920F931F9345
:1001F000CF93DF93EC01882777FD8095982F28EE29
:1002000033E040E050E00E94DE033B014C01CE01B0
:10021000880F991F5C01CC24B7FCC094DC2CEE2421
:10022000FF24870114C061E0809104010E942C0327
:10023000CE010E94C60260E0809104010E942C035E
:10024000CE010E94C602EA0CFB1C0C1D1D1DE6140B
:10025000F704080519053CF3DF91CF911F910F9129
:10026000FF90EF90DF90CF90BF90AF909F908F90D6
:100270007F906F9008959F92AF92BF92CF92DF923E
:10028000EF92FF920F931F93DF93CF93CDB7DEB71B
:1002900068970FB6F894DEBF0FBECDBF982E5B01F6
:1002A000DE011196E8E4F1E088E001900D928150C2
:1002B000E1F7DE011996E8E3F1E080E101900D92AB
:1002C0008150E1F77E010894E11CF11C8E01075F6B
:1002D0001F4F6801F7018081891531F4B501F801DC
:1002E000808191810E94EC000894E11CF11C0E5F5A
:1002F0001F4FEC14FD0471F768960FB6F894DEBF3B
:100300000FBECDBFCF91DF911F910F91FF90EF9066
:10031000DF90CF90BF90AF909F9008950F931F9361
:10032000CF93DF9308E111E0C0E0D0E03CC0B90119
:10033000882777FD8095982F0E94BC03FE01E85F17
:10034000FE4F80814091360150913701F8012081A4
:100350003181803271F4429FB001439F700D529FF2
:10036000700D1124882777FD8095982F0E949C029C
:1003700009C0429FB001439F700D529F700D112420
:100380000E943B01809136019091370162E070E05C
:100390000E94FD03882777FD8095982F0E949C027C
:1003A00021960E5F1F4F2091060130910701C21761
:1003B000D3070CF4BCCFDF91CF911F910F9108951B
:1003C0000E94D4020E94E6000E948E01FDCF84E5C7
:1003D00091E090935701809356010895862F0E94D3
:1003E000770308951F920F920FB60F9211248F93E7
:1003F0009F93EF93FF938091580190915901892B1E
:1004000029F0E0915801F09159010995FF91EF9180
:100410009F918F910F900FBE0F901F9018951F9274
:100420000F920FB60F9211248F939F93EF93FF9328
:1004300080915A0190915B01892B29F0E0915A013A
:10044000F0915B010995FF91EF919F918F910F9032
:100450000FBE0F901F9018951F920F920FB60F921C
:1004600011242F938F939F93AF93BF9380915C013F
:1004700090915D01A0915E01B0915F010196A11D77
:10048000B11D80935C0190935D01A0935E01B093D8
:100490005F018091600190916101A0916201B09132
:1004A00063018050904CAF4FBF4F80936001909399
:1004B0006101A0936201B093630127C08091600144
:1004C00090916101A0916201B091630180589E43B7
:1004D000A040B0408093600190936101A0936201BD
:1004E000B09363018091640190916501A0916601D0
:1004F000B09167010196A11DB11D80936401909395
:100500006501A0936601B0936701809160019091AD
:100510006101A0916201B091630181589E43A040A6
:10052000B04060F6BF91AF919F918F912F910F9046
:100530000FBE0F901F901895EF92FF920F931F938D
:100540007B018C018FB7F894409164015091650153
:1005500060916601709167018FBF2FB7F894809109
:10056000640190916501A0916601B09167012FBF70
:10057000841B950BA60BB70BE816F9060A071B0799
:1005800060F71F910F91FF90EF900895019759F038
:10059000FC01EE0FFF1FEE0FFF1F32978FB7F8948D
:1005A0003197F1F78FBF0895789484B5826084BD48
:1005B00084B5816084BD85B5826085BD85B5816067
:1005C00085BDEEE6F0E0808181608083E1E8F0E0C7
:1005D000808182608083808181608083E0E8F0E0B8
:1005E000808181608083E1EBF0E0808184608083A2
:1005F000E0EBF0E0808181608083EAE7F0E08081D9
:100600008460808380818260808380818160808338
:100610008081806880831092C1000895282F30E087
:10062000C90185579F4FFC01949129583F4FF9010B
:100630008491882381F0E82FF0E0E859FF4FE4919E
:10064000F0E0662329F480819095892380830895C2
:100650008081892B80830895482F50E0CA018156FC
:100660009F4FFC012491CA0185579F4FFC01949133
:1006700049585F4FFA0134913323C1F1222331F1FC
:10068000233021F4809180008F7705C0243031F42D
:10069000809180008F7D8093800018C0213019F4F4
:1006A00084B58F7704C0223021F484B58F7D84BD5A
:1006B0000DC0263021F48091B0008F7705C027301F
:1006C00029F48091B0008F7D8093B000E32FF0E09B
:1006D000E359FF4FE491F0E0662329F4808190957F
:1006E0008923808308958081892B80830895982FA2
:1006F0008091C00085FFFCCF9093C60008951F92A3
:100700000F920FB60F9211242F933F934F935F9345
:100710006F937F938F939F93AF93BF93EF93FF93C9
:100720004091C600E0916801F0916901CF01019606
:1007300060E870E00E94FD039C0180916A01909145
:100740006B012817390739F0E459FE4F4083309385
:10075000690120936801FF91EF91BF91AF919F9143
:100760008F917F916F915F914F913F912F910F905A
:100770000FBE0F901F901895EF92FF920F931F934B
:100780007B018C01611571058105910529F420E03B
:1007900030E040E050E00BC00E94D800A801970173
:1007A0000E943204AC01CB01DA019C01AD01B90118
:1007B000CA011F910F91FF90EF900895629FD001A1
:1007C000739FF001829FE00DF11D649FE00DF11D0C
:1007D000929FF00D839FF00D749FF00D659FF00DBB
:1007E0009927729FB00DE11DF91F639FB00DE11DA8
:1007F000F91FBD01CF011124089597FB092E07268B
:100800000AD077FD04D049D006D000201AF47095A4
:1008100061957F4F0895F6F7909581959F4F0895C4
:10082000A1E21A2EAA1BBB1BFD010DC0AA1FBB1FF4
:10083000EE1FFF1FA217B307E407F50720F0A21B66
:10084000B30BE40BF50B661F771F881F991F1A94D3
:1008500069F760957095809590959B01AC01BD01FD
:10086000CF01089597FB092E05260ED057FD04D021
:10087000D7DF0AD0001C38F450954095309521956B
:100880003F4F4F4F5F4F0895F6F7909580957095C5
:1008900061957F4F8F4F9F4F0895AA1BBB1B51E15E
:1008A00007C0AA1FBB1FA617B70710F0A61BB70BE0
:1008B000881F991F5A95A9F780959095BC01CD0185
:1008C0000895EE0FFF1F0590F491E02D09942F92EB
:1008D0003F924F925F926F927F928F929F92AF92D0
:1008E000BF92CF92DF92EF92FF920F931F93CF931D
:1008F000DF93CDB7DEB7CA1BDB0B0FB6F894DEBFB4
:100900000FBECDBF09942A88398848885F846E84D9
:100910007D848C849B84AA84B984C884DF80EE8023
:10092000FD800C811B81AA81B981CE0FD11D0FB62C
:10093000F894DEBF0FBECDBFED010895F894FFCF50
:100940000100000009000F0063636767616167666B
:100950006665656464632000010001000100010018
:10096000010001000200010001000100010001007E
:100970000100020004002C017B07A406EF05980586
:10098000FB047004F603BC0363646566676162433D
:0609900000000000EE0172
:00000001FF
