:100000000C945B000C9440020C945D020C948300F1
:100010000C9483000C9483000C9483000C94830054
:100020000C9483000C9483000C9483000C94830044
:100030000C9483000C9483000C9483000C94830034
:100040000C947A020C9483000C94CD030C948300DE
:100050000C9483000C9483000C9483000C94830014
:100060000C9483000C948300000024272A000025B0
:10007000282B000023262904040404040404040299
:100080000202020202030303030303010204081035
:100090002040800102040810200102040810200002
:1000A0000000070002010000030406000000000039
:1000B00000000000350211241FBECFEFD4E0DEBFE8
:1000C000CDBF11E0A0E0B1E0E8E1FAE002C00590A8
:1000D0000D92AC35B107D9F711E0ACE5B1E001C044
:1000E0001D92A23FB107E1F710E0C6EBD0E004C0DB
:1000F0002297FE010E94CF04C43BD107C9F70E949A
:100100002E020C940A050C940000A0E0B0E0EBE88D
:10011000F0E00C94DB04EC01A880B980CA80DB809D
:10012000A114B104C104D10441F484E2A82E89EDE4
:10013000B82E8BE5C82E87E0D82EC601B5012DE17B
:1001400033EF41E050E00E949E0427EA31E440E0B2
:1001500050E00E944A047B018C01C601B5012DE1EB
:1001600033EF41E050E00E949E04CA01B9012CEE39
:1001700034EF4FEF5FEF0E944A046E0D7F1D801F2A
:10018000911F97FF04C06150704080409048688381
:1001900079838A839B839B01AC015F77B901CA0194
:1001A000CDB7DEB7EAE00C94F7040E94850008950D
:1001B00080E091E00E9485000895609300017093B3
:1001C00001018093020190930301089561E0809101
:1001D00004010E945C0308956F927F928F929F9218
:1001E000AF92BF92CF92DF92EF92FF920F931F9345
:1001F000CF93DF93EC01882777FD8095982F28EE29
:1002000033E040E050E00E944A043B014C01CE0143
:10021000880F991F5C01CC24B7FCC094DC2CEE2421
:10022000FF24870114C061E0809104010E947A03D9
:10023000CE010E94140360E0809104010E947A03C1
:10024000CE010E941403EA0CFB1C0C1D1D1DE614BC
:10025000F704080519053CF3DF91CF911F910F9129
:10026000FF90EF90DF90CF90BF90AF909F908F90D6
:100270007F906F9008959F92AF92BF92CF92DF923E
:10028000EF92FF920F931F93DF93CF93CDB7DEB71B
:1002900068970FB6F894DEBF0FBECDBF982E5B01F6
:1002A000DE011196EEE4F1E088E001900D928150BC
:1002B000E1F7DE011996EEE3F1E080E101900D92A5
:1002C0008150E1F77E010894E11CF11C8E01075F6B
:1002D0001F4F6801F7018081891529F4B501F801E4
:1002E0008081918104C064E670E088EB91E00E9417
:1002F000EC000894E11CF11C0E5F1F4FEC14FD0490
:1003000049F768960FB6F894DEBF0FBECDBFCF9108
:10031000DF911F910F91FF90EF90DF90CF90BF90F2
:10032000AF909F900895EF92FF920F931F93CF93FA
:10033000DF93C0E0D0E083C0B901882777FD8095C6
:10034000982F0E940A047B018C0160910601709134
:100350000701882777FD8095982F0E940A049B014A
:10036000AC01FE01E85FFE4F8081F701EE0FFF1F39
:10037000A0913601B0913701803291F4E85EFE4FD2
:10038000808191818A9FB0018B9F700D9A9F700D23
:100390001124882777FD8095982F0E94EA0211C0CA
:1003A000E85EFE4F808191818A9FB0018B9F700D26
:1003B0009A9F700D1124F901E85FFE4F80810E9421
:1003C0003B01809136019091370162E070E00E941C
:1003D0006904882777FD8095982F0E94EA02009192
:1003E00036011091370160913C0170913D019B01F4
:1003F000442737FD4095542F709561957F4F88278E
:1004000077FD8095982F0E942C04C801860F971FB6
:10041000909337018093360120913A0130913B014E
:10042000281739073CF020913801309139018217A3
:10043000930724F4309337012093360121962091BD
:10044000060130910701C217D3070CF475CFDF9175
:10045000CF911F910F91FF90EF9008950E9422037A
:100460000E94E6000E949301FDCF8AE591E09093FF
:100470005D0180935C010895862F0E94C503089555
:100480001F920F920FB60F9211248F939F93EF93A9
:10049000FF9380915E0190915F01892B29F0E0919B
:1004A0005E01F0915F010995FF91EF919F918F910E
:1004B0000F900FBE0F901F9018951F920F920FB6BE
:1004C0000F9211248F939F93EF93FF93809160017C
:1004D00090916101892B29F0E0916001F091610117
:1004E0000995FF91EF919F918F910F900FBE0F9003
:1004F0001F9018951F920F920FB60F9211242F93F1
:100500008F939F93AF93BF9380916201909163010A
:10051000A0916401B09165010196A11DB11D809368
:10052000620190936301A0936401B093650180918F
:10053000660190916701A0916801B09169018050B6
:10054000904CAF4FBF4F8093660190936701A0938B
:100550006801B093690127C080916601909167019D
:10056000A0916801B091690180589E43A040B040BD
:100570008093660190936701A0936801B09369012D
:1005800080916A0190916B01A0916C01B0916D0115
:100590000196A11DB11D80936A0190936B01A093F8
:1005A0006C01B0936D018091660190916701A091FB
:1005B0006801B091690181589E43A040B04060F647
:1005C000BF91AF919F918F912F910F900FBE0F9080
:1005D0001F901895EF92FF920F931F937B018C0150
:1005E0008FB7F89440916A0150916B0160916C0152
:1005F00070916D018FBF2FB7F89480916A0190912F
:100600006B01A0916C01B0916D012FBF841B950B04
:10061000A60BB70BE816F9060A071B0760F71F9130
:100620000F91FF90EF900895019759F0FC01EE0FA4
:10063000FF1FEE0FFF1F32978FB7F8943197F1F736
:100640008FBF0895789484B5826084BD84B581603D
:1006500084BD85B5826085BD85B5816085BDEEE6CA
:10066000F0E0808181608083E1E8F0E08081826059
:100670008083808181608083E0E8F0E08081816018
:100680008083E1EBF0E0808184608083E0EBF0E048
:10069000808181608083EAE7F0E0808184608083EC
:1006A0008081826080838081816080838081806896
:1006B00080831092C1000895282F30E0C90185572A
:1006C0009F4FFC01949129583F4FF9018491882351
:1006D00081F0E82FF0E0E859FF4FE491F0E0662365
:1006E00029F4808190958923808308958081892BC6
:1006F00080830895482F50E0CA0181569F4FFC0126
:100700002491CA0185579F4FFC01949149585F4F2E
:10071000FA0134913323C1F1222331F1233021F442
:10072000809180008F7705C0243031F48091800063
:100730008F7D8093800018C0213019F484B58F77A5
:1007400004C0223021F484B58F7D84BD0DC02630D5
:1007500021F48091B0008F7705C0273029F4809173
:10076000B0008F7D8093B000E32FF0E0E359FF4F9E
:10077000E491F0E0662329F48081909589238083B9
:1007800008958081892B80830895982F8091C000DF
:1007900085FFFCCF9093C60008951F920F920FB66D
:1007A0000F9211242F933F934F935F936F937F93F7
:1007B0008F939F93AF93BF93EF93FF934091C600A6
:1007C000E0916E01F0916F01CF01019660E870E059
:1007D0000E9469049C018091700190917101281719
:1007E000390739F0EE58FE4F408330936F01209364
:1007F0006E01FF91EF91BF91AF919F918F917F918A
:100800006F915F914F913F912F910F900FBE0F907D
:100810001F901895EF92FF920F931F937B018C010D
:10082000611571058105910529F420E030E040E073
:1008300050E00BC00E94D800A80197010E949E04BE
:10084000AC01CB01DA019C01AD01B901CA011F91D4
:100850000F91FF90EF900895EF92FF920F931F93E7
:100860007B018C01621773078407950764F4261BCC
:10087000370B480B590BCA01B9010E940A04E60E56
:10088000F71E081F191FB701C8011F910F91FF9094
:10089000EF900895629FD001739FF001829FE00D59
:1008A000F11D649FE00DF11D929FF00D839FF00DEF
:1008B000749FF00D659FF00D9927729FB00DE11D9B
:1008C000F91F639FB00DE11DF91FBD01CF01112478
:1008D000089597FB092E07260AD077FD04D049D04A
:1008E00006D000201AF4709561957F4F0895F6F7B1
:1008F000909581959F4F0895A1E21A2EAA1BBB1BCC
:10090000FD010DC0AA1FBB1FEE1FFF1FA217B307DB
:10091000E407F50720F0A21BB30BE40BF50B661FF1
:10092000771F881F991F1A9469F7609570958095B5
:1009300090959B01AC01BD01CF01089597FB092E55
:1009400005260ED057FD04D0D7DF0AD0001C38F49E
:1009500050954095309521953F4F4F4F5F4F0895EB
:10096000F6F790958095709561957F4F8F4F9F4FCB
:100970000895AA1BBB1B51E107C0AA1FBB1FA617E6
:10098000B70710F0A61BB70B881F991F5A95A9F738
:1009900080959095BC01CD010895EE0FFF1F059045
:1009A000F491E02D09942F923F924F925F926F92B3
:1009B0007F928F929F92AF92BF92CF92DF92EF92EF
:1009C000FF920F931F93CF93DF93CDB7DEB7CA1B70
:1009D000DB0B0FB6F894DEBF0FBECDBF09942A889B
:1009E000398848885F846E847D848C849B84AA8443
:1009F000B984C884DF80EE80FD800C811B81AA81D0
:100A0000B981CE0FD11D0FB6F894DEBF0FBECDBF9A
:080A1000ED010895F894FFCFF9
:100A18000100000009000F00636367676161676692
:100A2800666565646463200001000100010001003F
:100A380001000100020001000100010001000100A5
:100A48000100020004002C01010064000500D70029
:100A58003D010702DC026B037004F603BC03636408
:0C0A6800656667616243000000003C020C
:00000001FF
