:100000000C945B000C94B8010C94D5010C94830003
:100010000C9483000C9483000C9483000C94830054
:100020000C9483000C9483000C9483000C94830044
:100030000C9483000C9483000C9483000C94830034
:100040000C94F2010C9483000C9443030C948300F1
:100050000C9483000C9483000C9483000C94830014
:100060000C9483000C948300000024272A000025B0
:10007000282B000023262904040404040404040299
:100080000202020202030303030303010204081035
:100090002040800102040810200102040810200002
:1000A0000000070002010000030406000000000039
:1000B00000000000D40011241FBECFEFD4E0DEBF4B
:1000C000CDBF11E0A0E0B1E0E8EDF7E002C005909F
:1000D0000D92A031B107D9F711E0A0E1B1E001C064
:1000E0001D92A83AB107E1F710E0C6EBD0E004C0DA
:1000F0002297FE010E94E603C43BD107C9F70E9484
:10010000CD000C94EA030C940000CF93DF93809110
:1001100006010E94C60224E630E0829FE001839F30
:10012000D00D929FD00D11242196AE01662757FD68
:100130006095762F2AE030E082E191E00E94A301F1
:10014000D0930301C09302018091040190910501B5
:100150008C179D073CF08091100190911101C817F8
:10016000D90724F4909303018093020164E170E0C5
:1001700080E090E00E946202DF91CF91089561E0FB
:10018000809100010E94E40240E855E260E070E0E6
:1001900082E191E00E94DF0008950E948C020E949B
:1001A000BF000E948500FDCF8DE091E09093130188
:1001B000809312010895862F0E943B030895CB017E
:1001C000BA010E94020308952F923F924F925F92CC
:1001D0006F927F928F929F92AF92BF92CF92DF9257
:1001E000EF92FF920F931F93DF93CF93CDB7DEB7BC
:1001F000A0970FB6F894DEBF0FBECDBF1C016A01F9
:100200007B01411551056105710549F4DC01ED9152
:10021000FC910190F081E02D60E3099554C08824A1
:1002200099245401422E55246624772401E010E0DD
:100230000C0F1D1F080D191DC701B601A301920166
:100240000E949303F80160830894811C911CA11CF7
:10025000B11CC701B601A30192010E949303C90119
:10026000DA016C017D01C114D104E104F104F1F65D
:1002700081E0E82EF12CEC0EFD1EE80CF91C3E018D
:100280000894611C711CD501C4010197A109B10931
:100290006C01C818D90814C0F601EE0DFF1D60816D
:1002A0006A3010F4605D01C0695CD101ED91FC9190
:1002B0000190F081E02DC10109950894E108F10851
:1002C0006E147F0449F7A0960FB6F894DEBF0FBEF8
:1002D000CDBFCF91DF911F910F91FF90EF90DF90F5
:1002E000CF90BF90AF909F908F907F906F905F90D6
:1002F0004F903F902F900895EF92FF920F931F938E
:10030000CF93DF93EC017A018B0177FF0FC0E88177
:10031000F9810190F081E02D6DE20995109500952D
:10032000F094E094E11CF11C011D111D2AE0B801BC
:10033000A701CE010E94E400DF91CF911F910F91A0
:10034000FF90EF900895DC012115310541F4ED9106
:10035000FC910190F081E02D642F099508952A30D9
:10036000310519F40E947C0108950E94E40008956B
:100370001F920F920FB60F9211248F939F93EF93BA
:10038000FF938091140190911501892B29F0E09140
:100390001401F09115010995FF91EF919F918F91B3
:1003A0000F900FBE0F901F9018951F920F920FB6CF
:1003B0000F9211248F939F93EF93FF9380911601D7
:1003C00090911701892B29F0E0911601F091170106
:1003D0000995FF91EF919F918F910F900FBE0F9014
:1003E0001F9018951F920F920FB60F9211242F9302
:1003F0008F939F93AF93BF938091180190911901B0
:10040000A0911A01B0911B010196A11DB11D80930D
:10041000180190931901A0931A01B0931B018091C8
:100420001C0190911D01A0911E01B0911F018050EF
:10043000904CAF4FBF4F80931C0190931D01A09330
:100440001E01B0931F0127C080911C0190911D01D6
:10045000A0911E01B0911F0180589E43A040B04062
:1004600080931C0190931D01A0931E01B0931F0166
:100470008091200190912101A0912201B09123014E
:100480000196A11DB11D8093200190932101A0939D
:100490002201B093230180911C0190911D01A09134
:1004A0001E01B0911F0181589E43A040B04060F6EC
:1004B000BF91AF919F918F912F910F900FBE0F9091
:1004C0001F901895EF92FF920F931F937B018C0161
:1004D0008FB7F89440912001509121016091220141
:1004E000709123018FBF2FB7F894809120019091D4
:1004F0002101A0912201B09123012FBF841B950BF4
:10050000A60BB70BE816F9060A071B0760F71F9141
:100510000F91FF90EF900895789484B5826084BD28
:1005200084B5816084BD85B5826085BD85B58160F7
:1005300085BDEEE6F0E0808181608083E1E8F0E057
:10054000808182608083808181608083E0E8F0E048
:10055000808181608083E1EBF0E080818460808332
:10056000E0EBF0E0808181608083EAE7F0E0808169
:1005700084608083808182608083808181608083C9
:100580008081806880831092C10008958F7090915F
:1005900008019295990F990F907C982B90937C006D
:1005A00080917A00806480937A0080917A0086FD41
:1005B000FCCF2091780040917900942F80E030E0CA
:1005C000282B392BC9010895282F30E0C901855700
:1005D0009F4FFC01949129583F4FF9018491882342
:1005E00081F0E82FF0E0E859FF4FE491F0E0662356
:1005F00029F4808190958923808308958081892BB7
:1006000080830895EF92FF920F931F937B018C01DB
:1006100022E030E040E050E00E94B503205C3D4B1A
:10062000404F5F4FCA01B901A80197010E94B5036D
:10063000C901DA010197A109B109292F3A2F4B2FDE
:10064000552747FD5A950196A11DB11D2093C50060
:1006500081508093C400E1ECF0E080818061808370
:100660008081886080838081806880831F910F9162
:10067000FF90EF900895982F8091C00085FFFCCFE8
:100680009093C60008951F920F920FB60F921124F7
:100690002F933F934F935F936F937F938F939F938A
:1006A000AF93BF93EF93FF934091C600E091240175
:1006B000F0912501CF01019660E870E00E9480036F
:1006C0009C0180912601909127012817390739F064
:1006D000E85DFE4F40833093250120932401FF9174
:1006E000EF91BF91AF919F918F917F916F915F91AA
:1006F0004F913F912F910F900FBE0F901F90189523
:1007000097FB092E07260AD077FD04D049D006D0E2
:1007100000201AF4709561957F4F0895F6F7909533
:1007200081959F4F0895A1E21A2EAA1BBB1BFD01C4
:100730000DC0AA1FBB1FEE1FFF1FA217B307E407C0
:10074000F50720F0A21BB30BE40BF50B661F771F18
:10075000881F991F1A9469F76095709580959095F8
:100760009B01AC01BD01CF01089597FB092E052621
:100770000ED057FD04D0D7DF0AD0001C38F45095B6
:100780004095309521953F4F4F4F5F4F0895F6F7B5
:1007900090958095709561957F4F8F4F9F4F0895ED
:1007A000AA1BBB1B51E107C0AA1FBB1FA617B70797
:1007B00010F0A61BB70B881F991F5A95A9F78095B3
:1007C0009095BC01CD010895EE0FFF1F0590F491A7
:0807D000E02D0994F894FFCF1D
:1007D80009002C019C6305000100000000DB0000FB
:00000001FF
