:100000000C945B000C94FD000C941A010C9483007A
:100010000C9483000C9483000C9483000C94830054
:100020000C9483000C9483000C9483000C94830044
:100030000C9483000C9483000C9483000C94830034
:100040000C9437010C9483000C947E020C94830072
:100050000C9483000C9483000C9483000C94830014
:100060000C9483000C948300000024272A000025B0
:10007000282B000023262904040404040404040299
:100080000202020202030303030303010204081035
:100090002040800102040810200102040810200002
:1000A0000000070002010000030406000000000039
:1000B00000000000F20011241FBECFEFD4E0DEBF2D
:1000C000CDBF11E0A0E0B1E0E2E1F6E002C00590B2
:1000D0000D92AC30B107D9F711E0ACE0B1E001C04E
:1000E0001D92A43AB107E1F710E0C6EBD0E004C0DE
:1000F0002297FE010E940303C43BD107C9F70E9467
:10010000EB000C9407030C94000061E08091020165
:100110000E940D0261E08DE00E942B0208956F9213
:100120007F928F929F92AF92BF92CF92DF92EF9287
:10013000FF920F931F93CF93DF93EC01882777FDF6
:100140008095982F28EE33E040E050E00E94BB02FB
:100150003B014C01CE01880F991F5C01CC24B7FCF8
:10016000C094DC2CEE24FF24870114C061E0809150
:1001700002010E942B02CE010E94A70160E0809143
:1001800002010E942B02CE010E94A701EA0CFB1C77
:100190000C1D1D1DE614F704080519053CF3DF913D
:1001A000CF911F910F91FF90EF90DF90CF90BF9074
:1001B000AF909F908F907F906F90089580910001F5
:1001C0000E94EF0190930D0180930C0162E370E0B7
:1001D0000E948F0008950E94B5010E9485000E9430
:1001E000DE00FDCF89E091E090930F0180930E0136
:1001F0000895862F0E94760208951F920F920FB6DF
:100200000F9211248F939F93EF93FF93809110018E
:1002100090911101892B29F0E0911001F0911101C9
:100220000995FF91EF919F918F910F900FBE0F90C5
:100230001F9018951F920F920FB60F9211248F9353
:100240009F93EF93FF938091120190911301892B5B
:1002500029F0E0911201F09113010995FF91EF91BE
:100260009F918F910F900FBE0F901F9018951F9226
:100270000F920FB60F9211242F938F939F93AF93EA
:10028000BF938091140190911501A0911601B09136
:1002900017010196A11DB11D8093140190931501C2
:1002A000A0931601B0931701809118019091190144
:1002B000A0911A01B0911B018050904CAF4FBF4FDD
:1002C0008093180190931901A0931A01B0931B0118
:1002D00027C08091180190911901A0911A01B09145
:1002E0001B0180589E43A040B0408093180190931A
:1002F0001901A0931A01B0931B0180911C019091E8
:100300001D01A0911E01B0911F010196A11DB11DFB
:1003100080931C0190931D01A0931E01B0931F01B7
:100320008091180190911901A0911A01B0911B01BF
:1003300081589E43A040B04060F6BF91AF919F911D
:100340008F912F910F900FBE0F901F9018950197CE
:1003500059F0FC01EE0FFF1FEE0FFF1F32978FB712
:10036000F8943197F1F78FBF0895789484B582603F
:1003700084BD84B5816084BD85B5826085BD85B549
:10038000816085BDEEE6F0E0808181608083E1E8F8
:10039000F0E0808182608083808181608083E0E8FA
:1003A000F0E0808181608083E1EBF0E08081846017
:1003B0008083E0EBF0E0808181608083EAE7F0E019
:1003C000808184608083808182608083808181607D
:1003D00080838081806880831092C10008958F702F
:1003E000909104019295990F990F907C982B90937E
:1003F0007C0080917A00806480937A0080917A00FA
:1004000086FDFCCF2091780040917900942F80E008
:1004100030E0282B392BC9010895282F30E0C9017D
:1004200085579F4FFC01949129583F4FF9018491C2
:10043000882381F0E82FF0E0E859FF4FE491F0E0E5
:10044000662329F480819095892380830895808193
:10045000892B80830895482F50E0CA0181569F4F11
:10046000FC012491CA0185579F4FFC019491495882
:100470005F4FFA0134913323C1F1222331F123304C
:1004800021F4809180008F7705C0243031F4809171
:1004900080008F7D8093800018C0213019F484B5CE
:1004A0008F7704C0223021F484B58F7D84BD0DC0C8
:1004B000263021F48091B0008F7705C0273029F4D1
:1004C0008091B0008F7D8093B000E32FF0E0E3597E
:1004D000FF4FE491F0E0662329F480819095892311
:1004E000808308958081892B80830895982F80913F
:1004F000C00085FFFCCF9093C60008951F920F9215
:100500000FB60F9211242F933F934F935F936F93E6
:100510007F938F939F93AF93BF93EF93FF934091FC
:10052000C600E0912001F0912101CF01019660E821
:1005300070E00E94DA029C018091220190912301D7
:100540002817390739F0EC5DFE4F408330932101C5
:1005500020932001FF91EF91BF91AF919F918F91D7
:100560007F916F915F914F913F912F910F900FBEAF
:100570000F901F901895629FD001739FF001829F8A
:10058000E00DF11D649FE00DF11D929FF00D839F22
:10059000F00D749FF00D659FF00D9927729FB00DBF
:1005A000E11DF91F639FB00DE11DF91FBD01CF01D2
:1005B0001124089597FB092E07260AD077FD04D051
:1005C0000CD006D000201AF4709561957F4F0895E5
:1005D000F6F7909581959F4F0895AA1BBB1B51E19B
:1005E00007C0AA1FBB1FA617B70710F0A61BB70BA3
:1005F000881F991F5A95A9F780959095BC01CD0148
:100600000895EE0FFF1F0590F491E02D0994F894E2
:02061000FFCF1A
:0C06120005000A000100000000F90000D3
:00000001FF
