:100000000C945B000C94C5010C94E2010C948300E9
:100010000C9483000C9483000C9483000C94830054
:100020000C9483000C9483000C9483000C94830044
:100030000C9483000C9483000C9483000C94830034
:100040000C94FF010C9483000C94F3030C94830034
:100050000C9483000C9483000C9483000C94830014
:100060000C9483000C948300000024272A000025B0
:10007000282B000023262904040404040404040299
:100080000202020202030303030303010204081035
:100090002040800102040810200102040810200002
:1000A0000000070002010000030406000000000039
:1000B00000000000E10011241FBECFEFD4E0DEBF3E
:1000C000CDBF11E0A0E0B1E0E8E3F9E002C00590A7
:1000D0000D92AE30B107D9F711E0AEE0B1E001C04A
:1000E0001D92A83AB107E1F710E0C6EBD0E004C0DA
:1000F0002297FE010E949604C43BD107C9F70E94D3
:10010000DA000C949A040C9400000F931F938091D2
:1001100000010E94D30290930F0180930E01809101
:1001200002010E94D30264E070E00E9430046093F8
:10013000100170931101809104010E94F10240911D
:100140000E0150910F01662757FD6095762F02E151
:1001500011E020E030E0C8010E94B00140911001A0
:1001600050911101662757FD6095762F20E030E011
:10017000C8010E94B00120E030E049E050E060E0BA
:1001800070E0C8010E94B0016AE070E080E090E099
:100190000E946F021F910F91089540E855E260E0C0
:1001A00070E082E191E00E94EC0061E08DE00E944D
:1001B000670308950E9499020E94CD000E94850065
:1001C000FDCF8BE091E0909313018093120108958D
:1001D000862F0E94EB030895CB01BA010E94B2035F
:1001E00008952F923F924F925F926F927F928F92DB
:1001F0009F92AF92BF92CF92DF92EF92FF920F93B6
:100200001F93DF93CF93CDB7DEB7A0970FB6F894C7
:10021000DEBF0FBECDBF1C016A017B014115510538
:100220006105710549F4DC01ED91FC910190F081CB
:10023000E02D60E3099554C0882499245401422E8E
:1002400055246624772401E010E00C0F1D1F080DD3
:10025000191DC701B601A30192010E944304F801D0
:1002600060830894811C911CA11CB11CC701B601BC
:10027000A30192010E944304C901DA016C017D01CE
:10028000C114D104E104F104F1F681E0E82EF12C6F
:10029000EC0EFD1EE80CF91C3E010894611C711C5B
:1002A000D501C4010197A109B1096C01C818D90889
:1002B00014C0F601EE0DFF1D60816A3010F4605D20
:1002C00001C0695CD101ED91FC910190F081E02DBC
:1002D000C10109950894E108F1086E147F0449F7FB
:1002E000A0960FB6F894DEBF0FBECDBFCF91DF91C1
:1002F0001F910F91FF90EF90DF90CF90BF90AF9044
:100300009F908F907F906F905F904F903F902F9035
:100310000895EF92FF920F931F93CF93DF93EC0119
:100320007A018B0177FF0FC0E881F9810190F0819C
:10033000E02D6DE2099510950095F094E094E11C94
:10034000F11C011D111D2AE0B801A701CE010E9478
:10035000F100DF91CF911F910F91FF90EF900895E1
:10036000DC012115310541F4ED91FC910190F08102
:10037000E02D642F099508952A30310519F40E9463
:10038000890108950E94F10008951F920F920FB6FF
:100390000F9211248F939F93EF93FF9380911401F9
:1003A00090911501892B29F0E0911401F09115012C
:1003B0000995FF91EF919F918F910F900FBE0F9034
:1003C0001F9018951F920F920FB60F9211248F93C2
:1003D0009F93EF93FF938091160190911701892BC2
:1003E00029F0E0911601F09117010995FF91EF9125
:1003F0009F918F910F900FBE0F901F9018951F9295
:100400000F920FB60F9211242F938F939F93AF9358
:10041000BF938091180190911901A0911A01B09198
:100420001B010196A11DB11D809318019093190124
:10043000A0931A01B0931B0180911C0190911D01A2
:10044000A0911E01B0911F018050904CAF4FBF4F43
:1004500080931C0190931D01A0931E01B0931F0176
:1004600027C080911C0190911D01A0911E01B091A7
:100470001F0180589E43A040B04080931C01909380
:100480001D01A0931E01B0931F0180912001909146
:100490002101A0912201B09123010196A11DB11D5E
:1004A0008093200190932101A0932201B093230116
:1004B00080911C0190911D01A0911E01B0911F011E
:1004C00081589E43A040B04060F6BF91AF919F918C
:1004D0008F912F910F900FBE0F901F901895EF9254
:1004E000FF920F931F937B018C018FB7F89440917B
:1004F00020015091210160912201709123018FBF51
:100500002FB7F8948091200190912101A0912201B0
:10051000B09123012FBF841B950BA60BB70BE816D8
:10052000F9060A071B0760F71F910F91FF90EF90E4
:100530000895789484B5826084BD84B5816084BD5B
:1005400085B5826085BD85B5816085BDEEE6F0E04C
:10055000808181608083E1E8F0E080818260808337
:10056000808181608083E0E8F0E080818160808329
:10057000E1EBF0E0808184608083E0EBF0E080815B
:1005800081608083EAE7F0E08081846080838081FD
:1005900082608083808181608083808180688083A5
:1005A0001092C10008958F70909106019295990F55
:1005B000990F907C982B90937C0080917A008064B6
:1005C00080937A0080917A0086FDFCCF209178009C
:1005D00040917900942F80E030E0282B392BC9011D
:1005E00008951F93CF93DF93182FEB0161E00E94D2
:1005F0004903E12FF0E0E156FF4F8491833051F43D
:1006000080918000806880938000D0938900C0939F
:1006100088003BC0843051F48091800080628093D8
:100620008000D0938B00C0938A002FC0813039F4B2
:10063000209729F184B5806884BDC7BD26C082306B
:1006400039F42097E1F084B5806284BDC8BD1DC037
:10065000863041F48091B00080688093B000C093F0
:10066000B30013C0873041F48091B0008062809362
:10067000B000C093B40009C0C038D10514F460E0E4
:1006800001C061E0812F0E946703DF91CF911F912C
:100690000895282F30E0C90185579F4FFC019491A0
:1006A00029583F4FF9018491882381F0E82FF0E029
:1006B000E859FF4FE491F0E0662329F4808190959A
:1006C0008923808308958081892B80830895482F12
:1006D00050E0CA0181569F4FFC012491CA01855701
:1006E0009F4FFC01949149585F4FFA013491332395
:1006F000C1F1222331F1233021F4809180008F77E2
:1007000005C0243031F4809180008F7D809380007B
:1007100018C0213019F484B58F7704C0223021F439
:1007200084B58F7D84BD0DC0263021F48091B0004A
:100730008F7705C0273029F48091B0008F7D80939A
:10074000B000E32FF0E0E359FF4FE491F0E06623BF
:1007500029F4808190958923808308958081892B55
:1007600080830895EF92FF920F931F937B018C017A
:1007700022E030E040E050E00E946504205C3D4B08
:10078000404F5F4FCA01B901A80197010E9465045B
:10079000C901DA010197A109B109292F3A2F4B2F7D
:1007A000552747FD5A950196A11DB11D2093C500FF
:1007B00081508093C400E1ECF0E08081806180830F
:1007C0008081886080838081806880831F910F9101
:1007D000FF90EF900895982F8091C00085FFFCCF87
:1007E0009093C60008951F920F920FB60F92112496
:1007F0002F933F934F935F936F937F938F939F9329
:10080000AF93BF93EF93FF934091C600E091240113
:10081000F0912501CF01019660E870E00E9430045C
:100820009C0180912601909127012817390739F002
:10083000E85DFE4F40833093250120932401FF9112
:10084000EF91BF91AF919F918F917F916F915F9148
:100850004F913F912F910F900FBE0F901F901895C1
:1008600097FB092E07260AD077FD04D049D006D081
:1008700000201AF4709561957F4F0895F6F79095D2
:1008800081959F4F0895A1E21A2EAA1BBB1BFD0163
:100890000DC0AA1FBB1FEE1FFF1FA217B307E4075F
:1008A000F50720F0A21BB30BE40BF50B661F771FB7
:1008B000881F991F1A9469F7609570958095909597
:1008C0009B01AC01BD01CF01089597FB092E0526C0
:1008D0000ED057FD04D0D7DF0AD0001C38F4509555
:1008E0004095309521953F4F4F4F5F4F0895F6F754
:1008F00090958095709561957F4F8F4F9F4F08958C
:10090000AA1BBB1B51E107C0AA1FBB1FA617B70735
:1009100010F0A61BB70B881F991F5A95A9F7809551
:100920009095BC01CD010895EE0FFF1F0590F49145
:08093000E02D0994F894FFCFBB
:0E093800050003000A000100000000E80000B6
:00000001FF
