:100000000C945C000C94DB070C94F8070C948400AF
:100010000C9484000C9484000C9484000C94840050
:100020000C9484000C9484000C9484000C94840040
:100030000C9484000C9484000C9484000C94840030
:100040000C9415080C9484000C94390A0C948400C8
:100050000C9484000C9484000C9484000C94840010
:100060000C9484000C948400000024272A000025AE
:10007000282B000023262904040404040404040299
:100080000202020202030303030303010204081035
:100090002040800102040810200102040810200002
:1000A0000000070002010000030406000000000039
:1000B00000000000F601E90611241FBECFEFD4E0D6
:1000C000DEBFCDBF11E0A0E0B1E0E4ECF5E102C09D
:1000D00005900D92AC3AB107D9F712E0ACEAB1E065
:1000E00001C01D92A63AB107E1F710E0C8EBD0E0DD
:1000F00004C02297FE010E94DC0AC43BD107C9F765
:100100000E94E2060C94E00A0C940000CF93DF9367
:10011000BC018230910510F462E070E0A091A4026D
:10012000B091A502ED01E0E0F0E040E050E021C038
:10013000888199818617970769F48A819B81309716
:1001400019F09383828304C09093A5028093A40244
:10015000FE0134C06817790738F44115510519F0CC
:100160008417950708F4AC01FE018A819B819C01EC
:10017000E9012097E9F641155105A9F1CA01861B4D
:10018000970B049708F4BA01E0E0F0E02AC08D91E3
:100190009C91119784179507F9F46417750781F4FA
:1001A00012968D919C911397309719F093838283C7
:1001B00004C09093A5028093A402FD0132964CC026
:1001C000CA01861B970BFD01E80FF91F619371931C
:1001D00002978D939C9340C0FD01828193819C0185
:1001E000D9011097A1F68091A2029091A302892BC8
:1001F00041F48091A1019091A2019093A302809378
:10020000A2024091A3015091A4014115510541F46E
:100210004DB75EB780919F019091A001481B590B8B
:100220002091A2023091A302CA01821B930B861770
:10023000970780F0AB014E5F5F4F8417950750F032
:10024000420F531F5093A3024093A202F9016193FE
:10025000719302C0E0E0F0E0CF01DF91CF9108950B
:10026000CF93DF93009709F450C0EC0122971B82D3
:100270001A82A091A402B091A502109709F140E062
:1002800050E0AC17BD0708F1BB83AA83FE012191A2
:100290003191E20FF31FAE17BF0779F48D919C9156
:1002A0001197280F391F2E5F3F4F398328831296ED
:1002B0008D919C9113979B838A834115510571F40D
:1002C000D093A502C093A40220C012968D919C9158
:1002D0001397AD01009711F0DC01D3CFFA01D3835E
:1002E000C28321913191E20FF31FCE17DF0769F42A
:1002F00088819981280F391F2E5F3F4FFA01318382
:1003000020838A819B8193838283DF91CF9108959B
:10031000FB01DC014150504048F001900D9200205B
:10032000C9F701C01D9241505040E0F70895FC010B
:1003300081E090E00190061609F4CF010020D1F78A
:1003400001970895FB0151915523A9F0BF01DC01EC
:100350004D9145174111E1F759F4CD01019000206D
:1003600049F04D9140154111C9F3FB014111EFCF07
:1003700081E090E001970895FC01603DA9F0613DA6
:1003800028F4603959F0603CA1F40BC0603E19F0CC
:10039000643F79F40CC052A741A7089554A743A71E
:1003A000089556A745A7089550AB47A7089552ABA7
:1003B00041AB0895FC01138214821582DC0180E0B8
:1003C00016961C9216978F5F11968032C9F716A267
:1003D00010A617A203A8F4A9E02D309709F00995FB
:1003E0000895FC0110820E94DA0108958CEA91E0E0
:1003F0000E94F10108954F925F926F927F928F92C7
:100400009F92AF92BF92CF92DF92EF92FF920F93A3
:10041000DF93CF9300D0CDB7DEB72B017A013A83BB
:10042000298361E08DE00E945F0900E089819A8163
:100430003C01882477FC8094982C5701CC24B7FC8D
:10044000C094DC2C11C0C401B3010E94850861E096
:100450008DE00E947D09C601B5010E94850860E01B
:100460008DE00E947D090F5F802F90E08415950537
:1004700054F30F900F90CF91DF910F91FF90EF9079
:10048000DF90CF90BF90AF909F908F907F906F90B4
:100490005F904F9008950F931F938C0161E08DE062
:1004A0000E945F0920E931E048EC50E062E070E032
:1004B000C8010E94FB016CE271E080E090E00E94C4
:1004C000850824E030E041E050E062E070E0C801DF
:1004D0000E94FB016CE271E080E090E00E948508E0
:1004E00020E931E048EC50E060E070E0C8010E9493
:1004F000FB011F910F910895CF92DF92EF92FF922F
:100500000F931F937A0170E06F7070706069882795
:1005100077FD8095982F2CE0C22E22E0D22E20E08D
:1005200030E0AB01BC01C6010E94C607C70160E80C
:1005300070E00E94760AAA2797FDA095BA2F20E0C6
:1005400030E0AC01BD01C6010E94C607EE0CEF2CE5
:10055000EE1CFF080027F7FC0095102F20E030E08C
:10056000B801A701C6010E94C6071F910F91FF9015
:10057000EF90DF90CF9008950F931F930CE012E05F
:1005800020E030E049EF50E060E070E0C8010E94F8
:10059000C60720E030E042E050E060E070E0C801D3
:1005A0000E94C60720E030E040E050E060E070E0EC
:1005B000C8010E94C6071F910F91089520E030E006
:1005C00047EF50E060E070E08CE092E00E94C607E8
:1005D000089520E030E040EF50E060E070E08CE013
:1005E00092E00E94C6070895CF92DF92EF92FF92A9
:1005F0000F931F937C01AC01662757FD6095762F02
:100600004F77507060707070ECE0CE2EE2E0DE2E1E
:1006100020E030E0C6010E94C607EE0CEF2CEE1C75
:10062000FF080027F7FC0095102F8FE790E0A0E06F
:10063000B0E0E822F9220A231B2320E030E0B801D1
:10064000A701C6010E94C6071F910F91FF90EF906E
:10065000DF90CF900895BF92CF92DF92EF92FF92FA
:100660000F931F93CF93DF93E62EB42ED22EC32E7B
:100670000E94E902FF2400E010E020E030E0B80131
:10068000A7018CE092E00E94C6072D2D3C2DC901E8
:10069000EC0110E005C0899190E00E94F4021F5F18
:1006A0001B15C8F30E94DE02DF91CF911F910F91BD
:1006B000FF90EF90DF90CF90BF9008959A01DA01FC
:1006C0000D900020E9F71197A41BB50B4A2F0E944B
:1006D0002B030895AB0161E70E945E0308950F9319
:1006E0001F938A0170E06F707070606E882777FDCD
:1006F0008095982F20E030E0AB01BC018CE092E0C7
:100700000E94C607C8010E94F4021F910F9108952C
:100710008CE092E00E94F70690E00895AF92BF92BD
:10072000CF92DF92EF92FF920F931F93CF93DF93BD
:100730008C01D62EC72EB42EA22E60E071E08D2D36
:100740009C2D0E94A201EC016FE270E08D2D9C2D8A
:100750000E949701209771F07C010894E11CF11C24
:10076000E114F10439F09E012E5F822F8E19D80119
:100770008C930EC0AD2DBC2DFD0101900020E9F73A
:10078000ED19EF5FD801EC932D2D3C2DC9017C01B3
:10079000F801808190E00E948600FC01D801129649
:1007A0009C938E9311978C91E80FF11D10821196F6
:1007B000ED91FC911297B0821196ED91FC911297F8
:1007C000A1824C9150E04250504011968D919C91E5
:1007D0001297B70102960E948801DF91CF911F9175
:1007E0000F91FF90EF90DF90CF90BF90AF90089562
:1007F0001F93CF93DF93EC018881882351F10E94EE
:10080000E90220E030E049E750E060E070E08CE091
:1008100092E00E94C607E981FA8160818CE092E053
:100820000E94FF06E981FA8161818CE092E00E94DA
:10083000FF0612E009C0E981FA81E10FF11D808114
:1008400090E00E94F4021F5F88811817A0F30E94B5
:10085000DE02DF91CF911F9108951F93CF93DF9315
:10086000EC018E81813731F0893789F5CE010E9404
:10087000F80336C08DA99EA9892B91F18FA198A567
:10088000019762E070E00E94760A162F862F90E0B2
:100890000E948600AC01DC0121E030E011C0FE01C5
:1008A000E20FF11D96819C932F5FFE01E20FF11D77
:1008B0008681879588278795890F8D932F5F3F5F66
:1008C000311768F3EDA9FEA9CA01099509C0EFA97E
:1008D000F8AD309729F06FA161502796AE010995C8
:1008E000DF91CF911F910895CF93DF93EC018CE0BE
:1008F00092E00E94F406AC018EA1882391F0473F5C
:10090000510529F41EA2CE010E942D0493C08FA18F
:1009100098A5FE01E80FF91F4683019698A78FA3BB
:1009200089C08B81882309F446C0403851050CF0FA
:1009300042C081508B83FE01E80FF11D468388235E
:1009400009F078C08C81882309F474C0803D49F196
:10095000813D28F4803959F0803C59F51FC0803E14
:1009600019F0843F31F512C0E9A5FAA502C0EBA544
:10097000FCA53097F1F06E8170E07695762F6627B2
:10098000779567958F81680F711D11C0E9A9FAA944
:10099000309779F06E8170E08F810AC0EDA5FEA5D9
:1009A00002C0EFA5F8A9309721F06E8170E08D812B
:1009B00009951C823FC0403F510514F09A0106C0C2
:1009C0009A01207F3070842F8F708D83203E3105F7
:1009D000F1F0213E310554F4203C3105D1F0203DA9
:1009E0003105B9F02039310529F511C0243F310511
:1009F00071F0253F310524F4203F3105D9F40DC0B5
:100A0000293F310599F02F3F3105A1F40BC082E059
:100A100001C081E08B832C830DC081E08EA318A6DA
:100A20001FA208C0CE010E94DA0104C08CEA91E046
:100A30000E94BC02DF91CF9108950F931F938C0108
:100A400040E052EC61E070E08CE092E00E94FA0637
:100A5000C8010E944B026CE271E080E090E00E94CD
:100A60008508C8010E94BC021F910F910895813032
:100A700059F0813018F0823051F408C08BB16C7F8E
:100A80008370862B8BB9089565B9089568B9089568
:100A9000482F2091E5013091E601672B61F481E058
:100AA00090E002C0880F991F4A95E2F780959095D3
:100AB0002823392309C081E090E002C0880F991FE4
:100AC0004A95E2F7282B392B3093E6012093E50174
:100AD0000895E82FF0E0E751FE4F6083823021F463
:100AE0001092E6011092E5010895FF920F931F9373
:100AF000CF93DF93182F883050F08E3020F4FF24EE
:100B0000F39408E009C0863108F44AC003C082307B
:100B100008F44AC0FF2400E0C12FD0E0FE01E151FB
:100B2000FE4F608361307105D9F063307105E1F0EB
:100B3000672B79F560E0812F0E945F09EF2DF0E0CF
:100B4000EB5FFD4FC01BD10981E090E002C0880F30
:100B5000991FCA95E2F7809520818223808324C063
:100B600060E0812F0E947D0961E0812F0E945F0972
:100B7000EF2DF0E0EB5FFD4FC01BD10981E090E06D
:100B800002C0880F991FCA95E2F72081282B208385
:100B90000BC065E071E08CEA91E00E946A0304C03A
:100BA00082E0F82E0EE0B8CFDF91CF911F910F9128
:100BB000FF900895FF920F931F93F82E8B0163E02F
:100BC00070E00E947505B8018F2D0E9407091F91E2
:100BD0000F91FF9008950F931F93CF93DF93082FEA
:100BE00090E0FC01EB5FFD4F108110951623EC01A6
:100BF000C451DE4F8881811779F0412F50E0602F7A
:100C00008CEA91E00E947C021883412F50E0602F13
:100C10008CEA91E00E947C02DF91CF911F910F91AD
:100C200008951F9320E042E066E071E08CEA91E0D5
:100C30000E948E034AED55E060EE8CEA91E00E943E
:100C4000BC0147E355E060E98CEA91E00E94BC01F9
:100C500048E455E060EC8CEA91E00E94BC0149E672
:100C600055E060ED8CEA91E00E94BC0145E755E05B
:100C700064EF8CEA91E00E94BC0183E0809305025E
:100C800080EC809306021092070210E061E070E0B1
:100C9000812F0E9475051F5F1E30C1F715B818B867
:100CA0001BB81092E9011092EA011092EB018CEA54
:100CB00091E00E941D051F910895CF93DF93C0E03E
:100CC000D0E0FE01E751FE4F8081882391F0C130D2
:100CD00049F0C13018F0C23061F407C069B16C7FCF
:100CE00080E005C063B181E002C066B182E00E948D
:100CF000EB052196C330D10521F7DF91CF910895FF
:100D00000E945D062091120230911302409114025C
:100D1000509115028091080290910902A0910A0257
:100D2000B0910B0282179307A407B50708F049C0DA
:100D30008091120290911302A0911402B0911502B9
:100D40004396A11DB11D8093080290930902A093C0
:100D50000A02B0930B0204C08CEA91E00E94740472
:100D60008CEA91E00E948803892BB1F71092E80188
:100D70001092E7011FC08091E5019091E601022EDB
:100D800002C0959587950A94E2F780FF0AC0822FEA
:100D90000E94E908AC016091E7018CEA91E00E94B1
:100DA0006F038091E7019091E80101969093E8012B
:100DB0008093E7012091E7013091E8012830310567
:100DC000D4F208950E94AF080E9411060E94800686
:100DD000FDCF8AEA91E090930D0280930C02089572
:100DE000862F0E94010A08950E941A0A08950E94FF
:100DF000090A0895CB01BA010E94C8090895DC01CF
:100E0000ED91FC910190F081E02D099508952F92CC
:100E10003F924F925F926F927F928F929F92AF928A
:100E2000BF92CF92DF92EF92FF920F931F93DF93C7
:100E3000CF93CDB7DEB7A0970FB6F894DEBF0FBE45
:100E4000CDBF1C016A017B0141155105610571058A
:100E500049F4DC01ED91FC910190F081E02D60E31B
:100E6000099554C0882499245401422E552466249F
:100E7000772401E010E00C0F1D1F080D191DC7019C
:100E8000B601A30192010E94890AF80160830894C7
:100E9000811C911CA11CB11CC701B601A3019201C8
:100EA0000E94890AC901DA016C017D01C114D104D3
:100EB000E104F104F1F681E0E82EF12CEC0EFD1EC8
:100EC000E80CF91C3E010894611C711CD501C40199
:100ED0000197A109B1096C01C818D90814C0F6011D
:100EE000EE0DFF1D60816A3010F4605D01C0695C29
:100EF000D101ED91FC910190F081E02DC1010995A6
:100F00000894E108F1086E147F0449F7A0960FB623
:100F1000F894DEBF0FBECDBFCF91DF911F910F912F
:100F2000FF90EF90DF90CF90BF90AF909F908F9009
:100F30007F906F905F904F903F902F900895EF9229
:100F4000FF920F931F93CF93DF93EC017A018B01F4
:100F500077FF0FC0E881F9810190F081E02D6DE20B
:100F6000099510950095F094E094E11CF11C011D89
:100F7000111D2AE0B801A701CE010E940707DF91E9
:100F8000CF911F910F91FF90EF900895DC012115F3
:100F9000310541F4ED91FC910190F081E02D642F39
:100FA000099508952A30310519F40E949F07089584
:100FB0000E94070708951F920F920FB60F921124F7
:100FC0008F939F93EF93FF9380910E0290910F0266
:100FD000892B29F0E0910E02F0910F020995FF9103
:100FE000EF919F918F910F900FBE0F901F901895CA
:100FF0001F920F920FB60F9211248F939F93EF932E
:10100000FF938091100290911102892B29F0E091B9
:101010001002F09111020995FF91EF919F918F912C
:101020000F900FBE0F901F9018951F920F920FB642
:101030000F9211242F938F939F93AF93BF9380911F
:10104000120290911302A0911402B0911502019620
:10105000A11DB11D8093120290931302A09314025C
:10106000B09315028091160290911702A091180278
:10107000B09119028050904CAF4FBF4F8093160231
:1010800090931702A0931802B093190227C0809181
:10109000160290911702A0911802B091190280587F
:1010A0009E43A040B0408093160290931702A093F5
:1010B0001802B093190280911A0290911B02A0911C
:1010C0001C02B0911D020196A11DB11D80931A0250
:1010D00090931B02A0931C02B0931D0280911602F4
:1010E00090911702A0911802B091190281589E4365
:1010F000A040B04060F6BF91AF919F918F912F912A
:101100000F900FBE0F901F901895EF92FF920F93C4
:101110001F937B018C018FB7F89440911A02509174
:101120001B0260911C0270911D028FBF2FB7F894B3
:1011300080911A0290911B02A0911C02B0911D0295
:101140002FBF841B950BA60BB70BE816F9060A07F1
:101150001B0760F71F910F91FF90EF90089578940F
:1011600084B5826084BD84B5816084BD85B58260AC
:1011700085BD85B5816085BDEEE6F0E0808181604A
:101180008083E1E8F0E080818260808380818160FB
:101190008083E0E8F0E0808181608083E1EBF0E033
:1011A000808184608083E0EBF0E0808181608083D7
:1011B000EAE7F0E0808184608083808182608083C0
:1011C0008081816080838081806880831092C100EB
:1011D00008958F709091A5019295990F990F907C29
:1011E000982B90937C0080917A00806480937A00A1
:1011F00080917A0086FDFCCF2091780040917900A3
:10120000942F80E030E0282B392BC90108951F93DB
:10121000CF93DF93182FEB0161E00E945F09E12F6C
:10122000F0E0E156FF4F8491833051F480918000CB
:10123000806880938000D0938900C09388003BC071
:10124000843051F480918000806280938000D0933C
:101250008B00C0938A002FC0813039F4209729F188
:1012600084B5806884BDC7BD26C0823039F420971C
:10127000E1F084B5806284BDC8BD1DC0863041F4F4
:101280008091B00080688093B000C093B30013C019
:10129000873041F48091B00080628093B000C093A9
:1012A000B40009C0C038D10514F460E001C061E0A9
:1012B000812F0E947D09DF91CF911F910895282FE2
:1012C00030E0C90185579F4FFC01949129583F4F49
:1012D000F9018491882381F0E82FF0E0E859FF4F6D
:1012E000E491F0E0662329F480819095892380833E
:1012F00008958081892B80830895482F50E0CA018A
:1013000081569F4FFC012491CA0185579F4FFC01D4
:10131000949149585F4FFA0134913323C1F122234C
:1013200031F1233021F4809180008F7705C0243083
:1013300031F4809180008F7D8093800018C021302F
:1013400019F484B58F7704C0223021F484B58F7DE1
:1013500084BD0DC0263021F48091B0008F7705C088
:10136000273029F48091B0008F7D8093B000E32F67
:10137000F0E0E359FF4FE491F0E0662329F4808127
:1013800090958923808308958081892B8083089597
:10139000EF92FF920F931F937B018C0122E030E0CC
:1013A00040E050E00E94AB0A205C3D4B404F5F4F55
:1013B000CA01B901A80197010E94AB0AC901DA016B
:1013C0000197A109B109292F3A2F4B2F552747FD26
:1013D0005A950196A11DB11D2093C500815080939F
:1013E000C400E1ECF0E080818061808380818860CE
:1013F00080838081806880831F910F91FF90EF90A0
:101400000895982F8091C00085FFFCCF9093C6006F
:10141000089580911E0290911F0280589F4F209145
:10142000200230912102821B930B60E870E00E9441
:10143000760A0895409120025091210280911E0267
:1014400090911F028417950719F42FEF3FEF0FC0FB
:10145000FA01EE5DFD4F2081CA01019660E870E05F
:101460000E94760A909321028093200230E0C90105
:1014700008951F920F920FB60F9211242F933F934E
:101480004F935F936F937F938F939F93AF93BF938C
:10149000EF93FF934091C600E0911E02F0911F026E
:1014A000CF01019660E870E00E94760A9C0180916D
:1014B0002002909121022817390739F0EE5DFD4F87
:1014C000408330931F0220931E02FF91EF91BF9142
:1014D000AF919F918F917F916F915F914F913F91CC
:1014E0002F910F900FBE0F901F90189597FB092E0C
:1014F00007260AD077FD04D049D006D000201AF480
:10150000709561957F4F0895F6F7909581959F4F5F
:101510000895A1E21A2EAA1BBB1BFD010DC0AA1F34
:10152000BB1FEE1FFF1FA217B307E407F50720F04C
:10153000A21BB30BE40BF50B661F771F881F991FC7
:101540001A9469F760957095809590959B01AC0110
:10155000BD01CF01089597FB092E05260ED057FD3A
:1015600004D0D7DF0AD0001C38F450954095309550
:1015700021953F4F4F4F5F4F0895F6F79095809517
:10158000709561957F4F8F4F9F4F0895AA1BBB1B8E
:1015900051E107C0AA1FBB1FA617B70710F0A61B73
:1015A000B70B881F991F5A95A9F780959095BC0194
:1015B000CD010895EE0FFF1F0590F491E02D0994E1
:0415C000F894FFCFCD
:1015C4002E63707000002F55736572732F612F4462
:1015D4006F63756D656E74732F5F7465616368699D
:1015E4006E672F5F736F6D5F646F5F70656E73619D
:1015F4006D656E746F2F737031342F706475696EFE
:101604006F2F506475696E6F2D302E34626574616E
:10161400322F4669726D6174612D322E30626574A9
:1016240061332F4669726D6174612F6578616D70E5
:101634006C65732F5374616E646172644669726D74
:101644006174612F6170706C65742F5374616E6482
:101654006172644669726D6174612E6370700020FA
:0C16640000A60200000100000000F006DB
:00000001FF
