:100000000C945B000C9489010C94A6010C94830061
:100010000C9483000C9483000C9483000C94830054
:100020000C9483000C9483000C9483000C94830044
:100030000C9483000C9483000C9483000C94830034
:100040000C94C3010C9483000C9416030C9483004D
:100050000C9483000C9483000C9483000C94830014
:100060000C9483000C948300000024272A000025B0
:10007000282B000023262904040404040404040299
:100080000202020202030303030303010204081035
:100090002040800102040810200102040810200002
:1000A0000000070002010000030406000000000039
:1000B000000000007E0111241FBECFEFD4E0DEBFA0
:1000C000CDBF11E0A0E0B1E0E2E4F7E002C00590AE
:1000D0000D92A235B107D9F711E0A2E5B1E001C058
:1000E0001D92A83EB107E1F710E0C6EBD0E004C0D6
:1000F0002297FE010E949B03C43BD107C9F70E94CF
:1001000077010C949F030C94000061E08091000142
:100110000E94A50208956F927F928F929F92AF9254
:10012000BF92CF92DF92EF92FF920F931F93CF93E4
:10013000DF93EC01882777FD8095982F28EE33E038
:1001400040E050E00E9453033B014C01CE01880F78
:10015000991F5C01CC24B7FCC094DC2CEE24FF2456
:10016000870114C061E0809100010E94C302CE01AA
:100170000E945D0260E0809100010E94C302CE01F6
:100180000E945D02EA0CFB1C0C1D1D1DE614F70409
:10019000080519053CF3DF91CF911F910F91FF9056
:1001A000EF90DF90CF90BF90AF909F908F907F9017
:1001B0006F9008959F92AF92BF92CF92DF92EF928D
:1001C000FF920F931F93DF93CF93CDB7DEB768975E
:1001D0000FB6F894DEBF0FBECDBF982E5B01DE01D7
:1001E0001196E4E4F1E088E001900D928150E1F78E
:1001F000DE011996E4E3F1E080E101900D92815077
:10020000E1F77E010894E11CF11C8E01075F1F4F8E
:100210006801F7018081891531F4B501F801808109
:1002200091810E948B000894E11CF11C0E5F1F4F0E
:10023000EC14FD0471F768960FB6F894DEBF0FBE9C
:10024000CDBFCF91DF911F910F91FF90EF90DF9085
:10025000CF90BF90AF909F9008950F931F93CF932F
:10026000DF9304E111E0C0E0D0E035C0FE01EC5FB7
:10027000FE4F80814091320150913301F80120817D
:100280003181803271F4429FB001439F700D529FC3
:10029000700D1124882777FD8095982F0E943302D6
:1002A00009C0429FB001439F700D529F700D1124F1
:1002B0000E94DA00809132019091330162E070E097
:1002C0000E947203882777FD8095982F0E94330241
:1002D00021960E5F1F4F8091020190910301C81774
:1002E000D90724F2DF91CF911F910F9108950E94B9
:1002F0006B020E9485000E942D01FDCF80E591E0F8
:1003000090935301809352010895862F0E940E030B
:1003100008951F920F920FB60F9211248F939F93FF
:10032000EF93FF938091540190915501892B29F00F
:10033000E0915401F09155010995FF91EF919F9142
:100340008F910F900FBE0F901F9018951F920F92D4
:100350000FB60F9211248F939F93EF93FF93809189
:10036000560190915701892B29F0E0915601F091A7
:1003700057010995FF91EF919F918F910F900FBEBB
:100380000F901F9018951F920F920FB60F92112485
:100390002F938F939F93AF93BF9380915801909128
:1003A0005901A0915A01B0915B010196A11DB11DA7
:1003B0008093580190935901A0935A01B0935B0127
:1003C00080915C0190915D01A0915E01B0915F010F
:1003D0008050904CAF4FBF4F80935C0190935D0174
:1003E000A0935E01B0935F0127C080915C01909162
:1003F0005D01A0915E01B0915F0180589E43A040D5
:10040000B04080935C0190935D01A0935E01B09336
:100410005F018091600190916101A0916201B091B2
:1004200063010196A11DB11D80936001909361014C
:10043000A0936201B093630180915C0190915D0192
:10044000A0915E01B0915F0181589E43A040B040F1
:1004500060F6BF91AF919F918F912F910F900FBE3A
:100460000F901F901895EF92FF920F931F937B01AF
:100470008C018FB7F89440916001509161016091B7
:100480006201709163018FBF2FB7F8948091600172
:1004900090916101A0916201B09163012FBF841B13
:1004A000950BA60BB70BE816F9060A071B0760F7B2
:1004B0001F910F91FF90EF900895019759F0FC0163
:1004C000EE0FFF1FEE0FFF1F32978FB7F894319793
:1004D000F1F78FBF0895789484B5826084BD84B5A8
:1004E000816084BD85B5826085BD85B5816085BD2F
:1004F000EEE6F0E0808181608083E1E8F0E08081D9
:1005000082608083808181608083E0E8F0E0808188
:1005100081608083E1EBF0E0808184608083E0EBA8
:10052000F0E0808181608083EAE7F0E08081846090
:1005300080838081826080838081816080838081EC
:10054000806880831092C1000895282F30E0C9018F
:1005500085579F4FFC01949129583F4FF901849191
:10056000882381F0E82FF0E0E859FF4FE491F0E0B4
:10057000662329F480819095892380830895808162
:10058000892B80830895482F50E0CA0181569F4FE0
:10059000FC012491CA0185579F4FFC019491495851
:1005A0005F4FFA0134913323C1F1222331F123301B
:1005B00021F4809180008F7705C0243031F4809140
:1005C00080008F7D8093800018C0213019F484B59D
:1005D0008F7704C0223021F484B58F7D84BD0DC097
:1005E000263021F48091B0008F7705C0273029F4A0
:1005F0008091B0008F7D8093B000E32FF0E0E3594D
:10060000FF4FE491F0E0662329F4808190958923DF
:10061000808308958081892B80830895982F80910D
:10062000C00085FFFCCF9093C60008951F920F92E3
:100630000FB60F9211242F933F934F935F936F93B5
:100640007F938F939F93AF93BF93EF93FF934091CB
:10065000C600E0916401F0916501CF01019660E868
:1006600070E00E9472039C01809166019091670185
:100670002817390739F0E859FE4F40833093650158
:1006800020936401FF91EF91BF91AF919F918F9162
:100690007F916F915F914F913F912F910F900FBE7E
:1006A0000F901F901895629FD001739FF001829F59
:1006B000E00DF11D649FE00DF11D929FF00D839FF1
:1006C000F00D749FF00D659FF00D9927729FB00D8E
:1006D000E11DF91F639FB00DE11DF91FBD01CF01A1
:1006E0001124089597FB092E07260AD077FD04D020
:1006F0000CD006D000201AF4709561957F4F0895B4
:10070000F6F7909581959F4F0895AA1BBB1B51E169
:1007100007C0AA1FBB1FA617B70710F0A61BB70B71
:10072000881F991F5A95A9F780959095BC01CD0116
:100730000895EE0FFF1F0590F491E02D0994F894B1
:02074000FFCFE9
:1007420009000F00636367676161676666656564D8
:1007520064632000010001000100010001000100AA
:10076200020001000100010001000100010002007D
:1007720004002C017B07A406EF059805FB04700416
:10078200F603BC03636465666761624300000000B0
:020792008501DF
:00000001FF
