:100000000C945B000C9423020C9440020C9483002B
:100010000C9483000C9483000C9483000C94830054
:100020000C9483000C9483000C9483000C94830044
:100030000C9483000C9483000C9483000C94830034
:100040000C945D020C9483000C9426040C948300A1
:100050000C9483000C9483000C9483000C94830014
:100060000C9483000C948300000024272A000025B0
:10007000282B000023262904040404040404040299
:100080000202020202030303030303010204081035
:100090002040800102040810200102040810200002
:1000A0000000070002010000030406000000000039
:1000B000000000003A0111241FBECFEFD4E0DEBFE4
:1000C000CDBF11E0A0E0B1E0EEE6FAE002C005909D
:1000D0000D92AC30B107D9F711E0ACE0B1E001C04E
:1000E0001D92A43AB107E1F710E0C6EBD0E004C0DE
:1000F0002297FE010E943105C43BD107C9F70E9437
:1001000033010C9435050C94000061E080910201EC
:100110000E94B50361E08DE00E94D30308956F92C1
:100120007F928F929F92AF92BF92CF92DF92EF9287
:10013000FF920F931F93CF93DF93EC01882777FDF6
:100140008095982F28EE33E040E050E00E94AC0408
:100150003B014C01CE01880F991F5C01CC24B7FCF8
:10016000C094DC2CEE24FF24870114C061E0809150
:1001700002010E94D303CE010E94F70260E0809149
:1001800002010E94D303CE010E94F702EA0CFB1C7D
:100190000C1D1D1DE614F704080519053CF3DF913D
:1001A000CF911F910F91FF90EF90DF90CF90BF9074
:1001B000AF909F908F907F906F900895AF92BF9275
:1001C000CF92DF92EF92FF920F931F9380910001E5
:1001D0000E943F0390930D0180930C0162E370E055
:1001E0000E948F0060910C0170910D01882777FDAE
:1001F0008095982F2FEF30E040E050E05F934F93D1
:100200003F932F93AA24BB2465014FEFE42EF12CDA
:10021000012D112D20E030E040E050E00E94630409
:100220007B018C0183E00E945D033EE0C32E31E040
:10023000D32EB701C6010E941B02C6010E944501D0
:100240006AE070E080E090E00E94CD020F900F9095
:100250000F900F901F910F91FF90EF90DF90CF9034
:10026000BF90AF9008950E9405030E9485000E94F0
:10027000DE00FDCF89E091E090930F0180930E01A5
:100280000895862F0E941E0408950F931F938C01DA
:10029000DC01ED91FC910190F081E02D6DE009957C
:1002A000D801ED91FC910190F081E02D6AE0C80148
:1002B00009951F910F9108952F923F924F925F924F
:1002C0006F927F928F929F92AF92BF92CF92DF9266
:1002D000EF92FF920F931F93DF93CF93CDB7DEB7CB
:1002E000A0970FB6F894DEBF0FBECDBF1C016A0108
:1002F0007B01411551056105710549F4DC01ED9162
:10030000FC910190F081E02D60E3099554C08824B0
:1003100099245401422E55246624772401E010E0EC
:100320000C0F1D1F080D191DC701B601A301920175
:100330000E94DE04F80160830894811C911CA11CBA
:10034000B11CC701B601A30192010E94DE04C901DC
:10035000DA016C017D01C114D104E104F104F1F66C
:1003600081E0E82EF12CEC0EFD1EE80CF91C3E019C
:100370000894611C711CD501C4010197A109B10940
:100380006C01C818D90814C0F601EE0DFF1D60817C
:100390006A3010F4605D01C0695CD101ED91FC919F
:1003A0000190F081E02DC10109950894E108F10860
:1003B0006E147F0449F7A0960FB6F894DEBF0FBE07
:1003C000CDBFCF91DF911F910F91FF90EF90DF9004
:1003D000CF90BF90AF909F908F907F906F905F90E5
:1003E0004F903F902F900895EF92FF920F931F939D
:1003F000CF93DF93EC017A018B0177FF0FC0E88187
:10040000F9810190F081E02D6DE20995109500953C
:10041000F094E094E11CF11C011D111D2AE0B801CB
:10042000A701CE010E945C01DF91CF911F910F9136
:10043000FF90EF900895AB01662757FD6095762FEA
:100440000E94F40108951F920F920FB60F9211248B
:100450008F939F93EF93FF938091100190911101DF
:10046000892B29F0E0911001F09111010995FF917C
:10047000EF919F918F910F900FBE0F901F90189545
:100480001F920F920FB60F9211248F939F93EF93A9
:10049000FF938091120190911301892B29F0E09133
:1004A0001201F09113010995FF91EF919F918F91A6
:1004B0000F900FBE0F901F9018951F920F920FB6BE
:1004C0000F9211242F938F939F93AF93BF9380919B
:1004D000140190911501A0911601B0911701019698
:1004E000A11DB11D8093140190931501A0931601D5
:1004F000B09317018091180190911901A0911A01F0
:10050000B0911B018050904CAF4FBF4F80931801AA
:1005100090931901A0931A01B0931B0127C08091F9
:10052000180190911901A0911A01B0911B018058F6
:100530009E43A040B0408093180190931901A0936E
:100540001A01B0931B0180911C0190911D01A09193
:100550001E01B0911F010196A11DB11D80931C01C8
:1005600090931D01A0931E01B0931F01809118016B
:1005700090911901A0911A01B0911B0181589E43DD
:10058000A040B04060F6BF91AF919F918F912F91A5
:100590000F900FBE0F901F901895EF92FF920F9340
:1005A0001F937B018C018FB7F89440911C015091EF
:1005B0001D0160911E0170911F018FBF2FB7F8942C
:1005C00080911C0190911D01A0911E01B0911F010D
:1005D0002FBF841B950BA60BB70BE816F9060A076D
:1005E0001B0760F71F910F91FF90EF9008950197FF
:1005F00059F0FC01EE0FFF1FEE0FFF1F32978FB770
:10060000F8943197F1F78FBF0895789484B582609C
:1006100084BD84B5816084BD85B5826085BD85B5A6
:10062000816085BDEEE6F0E0808181608083E1E855
:10063000F0E0808182608083808181608083E0E857
:10064000F0E0808181608083E1EBF0E08081846074
:100650008083E0EBF0E0808181608083EAE7F0E076
:1006600080818460808380818260808380818160DA
:1006700080838081806880831092C10008958F708C
:10068000909104019295990F990F907C982B9093DB
:100690007C0080917A00806480937A0080917A0057
:1006A00086FDFCCF2091780040917900942F80E066
:1006B00030E0282B392BC90108951F93CF93DF9386
:1006C000182FEB0161E00E94B503E12FF0E0E15645
:1006D000FF4F8491833051F4809180008068809333
:1006E0008000D0938900C09388003BC0843051F4CF
:1006F00080918000806280938000D0938B00C093B3
:100700008A002FC0813039F4209729F184B58068A0
:1007100084BDC7BD26C0823039F42097E1F084B58E
:10072000806284BDC8BD1DC0863041F48091B00098
:1007300080688093B000C093B30013C0873041F449
:100740008091B00080628093B000C093B40009C073
:10075000C038D10514F460E001C061E0812F0E942F
:10076000D303DF91CF911F910895282F30E0C90165
:1007700085579F4FFC01949129583F4FF90184916F
:10078000882381F0E82FF0E0E859FF4FE491F0E092
:10079000662329F480819095892380830895808140
:1007A000892B80830895482F50E0CA0181569F4FBE
:1007B000FC012491CA0185579F4FFC01949149582F
:1007C0005F4FFA0134913323C1F1222331F12330F9
:1007D00021F4809180008F7705C0243031F480911E
:1007E00080008F7D8093800018C0213019F484B57B
:1007F0008F7704C0223021F484B58F7D84BD0DC075
:10080000263021F48091B0008F7705C0273029F47D
:100810008091B0008F7D8093B000E32FF0E0E3592A
:10082000FF4FE491F0E0662329F4808190958923BD
:10083000808308958081892B80830895982F8091EB
:10084000C00085FFFCCF9093C60008951F920F92C1
:100850000FB60F9211242F933F934F935F936F9393
:100860007F938F939F93AF93BF93EF93FF934091A9
:10087000C600E0912001F0912101CF01019660E8CE
:1008800070E00E94CB049C01809122019091230191
:100890002817390739F0EC5DFE4F40833093210172
:1008A00020932001FF91EF91BF91AF919F918F9184
:1008B0007F916F915F914F913F912F910F900FBE5C
:1008C0000F901F9018952F923F924F925F926F92C8
:1008D0007F928F929F92AF92BF92CF92DF92EF92D0
:1008E000FF920F931F93DF93CF93CDB7DEB73B01FA
:1008F0004C0119012A016D897E898F89988D6A19A9
:100900007B098C099D09621A730A840A950AA4015D
:1009100093010E94AC04E218F30804091509A80128
:1009200097010E9400052A0D3B1D4C1D5D1DB9015C
:10093000CA01CF91DF911F910F91FF90EF90DF904F
:10094000CF90BF90AF909F908F907F906F905F906F
:100950004F903F902F900895629FD001739FF001B8
:10096000829FE00DF11D649FE00DF11D929FF00D3F
:10097000839FF00D749FF00D659FF00D9927729F76
:10098000B00DE11DF91F639FB00DE11DF91FBD0101
:10099000CF011124089597FB092E07260AD077FD71
:1009A00004D049D006D000201AF4709561957F4F8D
:1009B0000895F6F7909581959F4F0895A1E21A2E1C
:1009C000AA1BBB1BFD010DC0AA1FBB1FEE1FFF1FF3
:1009D000A217B307E407F50720F0A21BB30BE40B43
:1009E000F50B661F771F881F991F1A9469F760958A
:1009F0007095809590959B01AC01BD01CF01089544
:100A000097FB092E05260ED057FD04D0D7DF0AD05C
:100A1000001C38F450954095309521953F4F4F4F2D
:100A20005F4F0895F6F790958095709561957F4F8B
:100A30008F4F9F4F0895AA1BBB1B51E107C0AA1FF0
:100A4000BB1FA617B70710F0A61BB70B881F991F6F
:100A50005A95A9F780959095BC01CD010895EE0FA8
:0E0A6000FF1F0590F491E02D0994F894FFCF4C
:0C0A6E0005000A0001000000004101002A
:00000001FF
