:100000000C945B000C94C1010C94DE010C948300F1
:100010000C9483000C9483000C9483000C94830054
:100020000C9483000C9483000C9483000C94830044
:100030000C9483000C9483000C9483000C94830034
:100040000C94FB010C9483000C9479030C948300B2
:100050000C9483000C9483000C9483000C94830014
:100060000C9483000C948300000024272A000025B0
:10007000282B000023262904040404040404040299
:100080000202020202030303030303010204081035
:100090002040800102040810200102040810200002
:1000A0000000070002010000030406000000000039
:1000B00000000000DD0011241FBECFEFD4E0DEBF42
:1000C000CDBF11E0A0E0B1E0E4E4F8E002C00590AB
:1000D0000D92AC30B107D9F711E0ACE0B1E001C04E
:1000E0001D92A63AB107E1F710E0C6EBD0E004C0DC
:1000F0002297FE010E941C04C43BD107C9F70E944D
:10010000D6000C9420040C9400000F931F93809150
:1001100000010E94CF0290930D0180930C01809109
:1001200002010E94CF0264E070E00E94B603709367
:100130000F0160930E0140910C0150910D01662753
:1001400057FD6095762F00E111E020E030E0C80116
:100150000E94AC0140910E0150910F01662757FD9E
:100160006095762F20E030E0C8010E94AC0120E0CD
:1001700030E049E050E060E070E0C8010E94AC016E
:100180006AE070E080E090E00E946B021F910F91A6
:10019000089540E855E260E070E080E191E00E945F
:1001A000E80061E08DE00E94ED0208950E94950252
:1001B0000E94C9000E948500FDCF89E091E09093E4
:1001C0001101809310010895862F0E9471030895F4
:1001D000CB01BA010E94380308952F923F924F92AB
:1001E0005F926F927F928F929F92AF92BF92CF92C7
:1001F000DF92EF92FF920F931F93DF93CF93CDB7D0
:10020000DEB7A0970FB6F894DEBF0FBECDBF1C01BE
:100210006A017B01411551056105710549F4DC0155
:10022000ED91FC910190F081E02D60E3099554C0BF
:10023000882499245401422E55246624772401E011
:1002400010E00C0F1D1F080D191DC701B601A301F9
:1002500092010E94C903F80160830894811C911CDB
:10026000A11CB11CC701B601A30192010E94C903E0
:10027000C901DA016C017D01C114D104E104F1046A
:10028000F1F681E0E82EF12CEC0EFD1EE80CF91CD5
:100290003E010894611C711CD501C4010197A1099C
:1002A000B1096C01C818D90814C0F601EE0DFF1D84
:1002B00060816A3010F4605D01C0695CD101ED912C
:1002C000FC910190F081E02DC10109950894E108AD
:1002D000F1086E147F0449F7A0960FB6F894DEBFBC
:1002E0000FBECDBFCF91DF911F910F91FF90EF9087
:1002F000DF90CF90BF90AF909F908F907F906F9046
:100300005F904F903F902F900895EF92FF920F9340
:100310001F93CF93DF93EC017A018B0177FF0FC01E
:10032000E881F9810190F081E02D6DE20995109549
:100330000095F094E094E11CF11C011D111D2AE0D0
:10034000B801A701CE010E94ED00DF91CF911F916E
:100350000F91FF90EF900895DC012115310541F4D4
:10036000ED91FC910190F081E02D642F09950895A5
:100370002A30310519F40E94850108950E94ED008C
:1003800008951F920F920FB60F9211248F939F938F
:10039000EF93FF938091120190911301892B29F023
:1003A000E0911201F09113010995FF91EF919F9156
:1003B0008F910F900FBE0F901F9018951F920F9264
:1003C0000FB60F9211248F939F93EF93FF93809119
:1003D000140190911501892B29F0E0911401F091FD
:1003E00015010995FF91EF919F918F910F900FBE8D
:1003F0000F901F9018951F920F920FB60F92112415
:100400002F938F939F93AF93BF93809116019091F9
:100410001701A0911801B09119010196A11DB11DFC
:100420008093160190931701A0931801B0931901BE
:1004300080911A0190911B01A0911C01B0911D01A6
:100440008050904CAF4FBF4F80931A0190931B0187
:10045000A0931C01B0931D0127C080911A019091B7
:100460001B01A0911C01B0911D0180589E43A0402A
:10047000B04080931A0190931B01A0931C01B0938C
:100480001D0180911E0190911F01A0912001B0914A
:1004900021010196A11DB11D80931E0190931F01A2
:1004A000A0932001B093210180911A0190911B012A
:1004B000A0911C01B0911D0181589E43A040B04005
:1004C00060F6BF91AF919F918F912F910F900FBECA
:1004D0000F901F901895EF92FF920F931F937B013F
:1004E0008C018FB7F89440911E0150911F016091CB
:1004F0002001709121018FBF2FB7F89480911E01C8
:1005000090911F01A0912001B09121012FBF841B68
:10051000950BA60BB70BE816F9060A071B0760F741
:100520001F910F91FF90EF900895789484B58260A9
:1005300084BD84B5816084BD85B5826085BD85B587
:10054000816085BDEEE6F0E0808181608083E1E836
:10055000F0E0808182608083808181608083E0E838
:10056000F0E0808181608083E1EBF0E08081846055
:100570008083E0EBF0E0808181608083EAE7F0E057
:1005800080818460808380818260808380818160BB
:1005900080838081806880831092C10008958F706D
:1005A000909104019295990F990F907C982B9093BC
:1005B0007C0080917A00806480937A0080917A0038
:1005C00086FDFCCF2091780040917900942F80E047
:1005D00030E0282B392BC9010895482F50E0CA017B
:1005E00081569F4FFC012491CA0185579F4FFC0102
:1005F000949149585F4FFA0134913323C1F122237A
:1006000031F1233021F4809180008F7705C02430B0
:1006100031F4809180008F7D8093800018C021305C
:1006200019F484B58F7704C0223021F484B58F7D0E
:1006300084BD0DC0263021F48091B0008F7705C0B5
:10064000273029F48091B0008F7D8093B000E32F94
:10065000F0E0E359FF4FE491F0E0662329F4808154
:1006600090958923808308958081892B80830895C4
:10067000EF92FF920F931F937B018C0122E030E0F9
:1006800040E050E00E94EB03205C3D4B404F5F4F49
:10069000CA01B901A80197010E94EB03C901DA015F
:1006A0000197A109B109292F3A2F4B2F552747FD53
:1006B0005A950196A11DB11D2093C50081508093CC
:1006C000C400E1ECF0E080818061808380818860FB
:1006D00080838081806880831F910F91FF90EF90CD
:1006E0000895982F8091C00085FFFCCF9093C6009D
:1006F00008951F920F920FB60F9211242F933F93DC
:100700004F935F936F937F938F939F93AF93BF9319
:10071000EF93FF934091C600E0912201F0912301F5
:10072000CF01019660E870E00E94B6039C018091C1
:100730002401909125012817390739F0EA5DFE4F11
:1007400040833093230120932201FF91EF91BF91C9
:10075000AF919F918F917F916F915F914F913F9159
:100760002F910F900FBE0F901F90189597FB092E99
:1007700007260AD077FD04D049D006D000201AF40D
:10078000709561957F4F0895F6F7909581959F4FED
:100790000895A1E21A2EAA1BBB1BFD010DC0AA1FC2
:1007A000BB1FEE1FFF1FA217B307E407F50720F0DA
:1007B000A21BB30BE40BF50B661F771F881F991F55
:1007C0001A9469F760957095809590959B01AC019E
:1007D000BD01CF01089597FB092E05260ED057FDC8
:1007E00004D0D7DF0AD0001C38F4509540953095DE
:1007F00021953F4F4F4F5F4F0895F6F790958095A5
:10080000709561957F4F8F4F9F4F0895AA1BBB1B1B
:1008100051E107C0AA1FBB1FA617B70710F0A61B00
:10082000B70B881F991F5A95A9F780959095BC0121
:10083000CD010895EE0FFF1F0590F491E02D09946E
:04084000F894FFCF5A
:0C084400050003000100000000E40000BB
:00000001FF
